:020000040800F2
:100000008006002099010008A1010008A301000852
:10001000A5010008A7010008A901000800000000D0
:10002000000000000000000000000000AB0100081C
:10003000AD01000800000000AF010008B101000898
:10004000B3010008B3010008B3010008B3010008C0
:10005000B3010008B3010008B3010008B3010008B0
:10006000B3010008B3010008B3010008B3010008A0
:10007000B3010008B3010008B3010008B301000890
:10008000B3010008B3010008B3010008B301000880
:10009000B3010008B3010008B3010008B301000870
:1000A000B3010008B3010008B3010008B301000860
:1000B00075040008B3010008B3010008B30100088B
:1000C000B3010008B3010008B3010008B301000840
:1000D000B30100082B050008F9050008B30100086A
:1000E000B3010008B3010008B301000800F002F8F2
:1000F00000F042F80AA090E8000C82448344AAF180
:100100000107DA4501D100F037F8AFF2090EBAE87D
:100110000F0013F0010F18BFFB1A43F0010318473B
:100120007810000098100000103A24BF78C878C1F9
:10013000FAD8520724BF30C830C144BF04680C60ED
:10014000704700000023002400250026103A28BF35
:1001500078C1FBD8520728BF30C148BF0B60704739
:10016000642900F0D386782900F00C8700207047BE
:100170001FB51FBD10B510BD00F0C2FF1146FFF73F
:10018000F7FF00F07EF800F0E0FF03B4FFF7F2FFA6
:1001900003BC00F0E5FF000009488047094800471C
:1001A000FEE7FEE7FEE7FEE7FEE7FEE7FEE7FEE727
:1001B000FEE7FEE704480549054A064B7047000084
:1001C0002D070008ED0000088000002080060020B8
:1001D000800200208002002008B54FF40050ADF8E6
:1001E000000004208DF803006946044800F016FB67
:1001F00008BD4FF40051014800F05FBB0010014002
:100200004FF48041164800F066BB08B5012115483F
:1002100000F065FB4FF48040ADF8000003208DF83E
:10022000020010208DF8030069460D4800F0F6FA30
:10023000FFF7E6FF08BD70B5094D4FF48044214635
:10024000284600F041FB00282146284603D0BDE89F
:10025000704000F042BBBDE8704000F03CBB0000C5
:10026000000801400004300010B5FFF7CEFFFFF793
:10027000B3FF00F0E0F900F07BF8BDE8104000F0BB
:10028000C5B800214FF0006000F0ACFA4FF4A06058
:1002900000F076FA00F024F8FFF7E6FF2D4800F0B2
:1002A0009FFEC1B22CA000F0F1FDF7E72B4910B57D
:1002B0000868401C086010F0010009D001280ED128
:1002C00000F074F8014626A0BDE8104000F0DEBD45
:1002D000FFF7B1FFFFF78DFF014623A0F4E710BD44
:1002E00010B500F027FB4FF48034204600F03BFBB4
:1002F000312000F050FB0028FAD0002000F077FBFE
:10030000002000F082FB4FF4806000F077FB4FF498
:10031000404000F082FB4FF48011204600F050FB7B
:10032000012000F055FB392000F035FB0028FAD001
:10033000022000F050FB00BF00F054FB0828FBD166
:1003400001213D2000F0B6FBBDE81040042000F084
:1003500050BA00000400002025780A0000000020A8
:1003600041442025780A00006B65792025640A0045
:1003700038B58020ADF800000420234C8DF8030030
:100380006946204600F04AFA2020ADF8000003201C
:100390008DF8020018208DF803006946204600F011
:1003A0003DFA2021204600F098FA38BD70B5164E6F
:1003B0002021304600F091FA00248021304600F0E0
:1003C0007CFA0028F9D100252021304600F083FA7C
:1003D00064002021304600F080FA8021304600F091
:1003E0006CFA00B1641C6D1CEDB2182DECD3202109
:1003F000304600F070FA84F400042021304600F00A
:100400006CFA204670BD0000000801401FB54FF097
:100410008044204600F084FB0121084600F053FB95
:1004200040F2CF70ADF8040048F69F40ADF80000F0
:100430000021ADF80610ADF802106946204600F024
:1004400007FC0121204600F04EFC01221146204607
:1004500000F041FC1C208DF80C0001218DF80E10DD
:100460008DF80F1003A800F090F90121204600F04C
:1004700028FC1FBD10B501218C07204600F036FC7A
:10048000002807D00121204600F03CFCBDE81040C8
:10049000FFF70CBF10BD000010B5012186B0880326
:1004A00000F008FB4FF48060ADF8100004206C4CA5
:1004B0008DF8130004A9204600F0B0F96015ADF8DE
:1004C000100003208DF8120018208DF8130004A9E5
:1004D000204600F0A3F9684600F090FC4FF4E130AC
:1004E00000900020ADF80800ADF804000C215D4C30
:1004F000ADF80600ADF80A10ADF80C0069462046CC
:1005000000F024FC25208DF8140001218DF8151031
:100510008DF816108DF8171005A800F036F9012196
:10052000204600F076FC06B010BD38B54D4C40F2C8
:100530002551204600F089FC40B12021204600F0E2
:1005400081FC204600F073FC8DF8000040F227711A
:10055000204600F07AFC002805D02046BDE838404F
:10056000802100F06FBC38BD30B5012187B0480450
:1005700000F0A9FA0820ADF81000394D04248DF8D8
:10058000134004A9284600F049F9ADF810400320B3
:100590008DF8120018208DF8130004A9284600F0E9
:1005A0003DF9684600F02AFC4FF4E130009000204D
:1005B000ADF80800ADF804000C212B4CADF8060096
:1005C000ADF80A10ADF80C006946204600F0BEFBFD
:1005D00026208DF8140002208DF8150001218DF8D9
:1005E00016108DF8171005A800F0CFF8012120464D
:1005F00000F00FFC07B030BD38B51B4C40F2255160
:10060000204600F022FC40B12021204600F01AFCD8
:10061000204600F00CFC8DF8000040F227712046C7
:1006200000F013FC002805D02046BDE838408021AA
:1006300000F008BC38BD10B5FFF72EFFBDE8104034
:1006400092E770B5074D0446C1B2284600F0EBFBB7
:100650004021284600F0EFFB0028F9D0204670BD6D
:1006600000080140003801400044004010B5064C2D
:100670002021204600F0DFFB0028F9D02046BDE80D
:10068000104000F0D4BB0000003801400CB5002140
:10069000364801910091026842F4803202604FF4C2
:1006A000A063026802F400320092019A521C019287
:1006B000009A12B9019A9A42F3D10268920333D593
:1006C000012100912A490A6842F010020A600A6872
:1006D00022F003020A600A6842F002020A604168DE
:1006E000416041684160416841F480614160416816
:1006F00021F47C114160416841F488114160016836
:1007000041F08071016001688901FCD5416821F0E8
:1007100003014160416841F0020141604168C1F359
:1007200081010229FAD10CBD00910CBD0F4810B512
:10073000016841F00101016041680E4A11404160C9
:1007400001680D4A11400160016821F480210160B7
:10075000416821F4FE0141604FF41F018160FFF701
:1007600095FF06494FF00060086010BD0010024080
:10077000002002400000FFF8FFFFF6FE08ED00E059
:1007800022490843224908607047F0B50F21C47818
:10079000027801234FF0E026DCB11D4C2468457837
:1007A00004F4E064C4F5E064240AC4F10407E14001
:1007B0008478BD400C402C432101164C1155007823
:1007C00000F01F018B40400906EB8000C0F80031AB
:1007D000F0BD02F01F008340500906EB8000C0F816
:1007E0008031F0BD0C4A114001430948001F0160EF
:1007F00070474FF0E0210428086903D020F004007E
:100800000861704740F00400FAE700000000FA05B4
:100810000CED00E000E400E080FFFF1FF0B5CA78B7
:10082000002502F00F03D20601D58A7813430C7815
:100830004FF00F0E0122ECB1D0F800400F8802FA01
:1008400005F63740B74211D14FEA850C0EFA0CF786
:1008500024EA070703FA0CF43C43CF78282F02D090
:10086000482F02D002E0466100E006616D1C082DB1
:10087000E4D304600C88FF2C1ED944685FF00006A6
:1008800006F1080702FA07F50F882F40AF420FD193
:100890004FEA860C0EFA0CF7BC4303FA0CF73C4304
:1008A000CF78282F00D14561CF78482F00D105613E
:1008B000761C082EE4D34460F0BD02460020926806
:1008C0000A4200D00120704702460020D2680A4246
:1008D00000D0012070470161704741617047F0B559
:1008E000134C002801DAE36900E06368420D12014D
:1008F00085B2C0F301579540C0F30346032F05D0DE
:10090000C2020AD50322B240934307E023F070628B
:10091000636823F07063636002E0AB4343F070628E
:1009200001B12A43002801DAE261F0BD6260F0BD46
:10093000000001407148016841F001010160416817
:100940006F4A1140416001686E4A114001600168C0
:1009500021F480210160416821F4FE0141604FF4DF
:100960001F018160704765490A6822F480320A607D
:100970000A6822F480220A60B0F5803F07D0B0F503
:10098000802F03D1086840F4A020086070470868F1
:1009900040F48030F9E70246002053095749012B03
:1009A0000AD0022B0AD0496A02F01F0201239340A9
:1009B0000B4200D0012070470968F5E7096AF3E7A8
:1009C0004E4A5368084323F47C1318435060704721
:1009D0004D4908667047494A516821F003010143B7
:1009E000516070474548406800F00C007047434A2A
:1009F000516821F0F0010143516070473F4A51684E
:100A000021F4E0610143516070473C494A6822F497
:100A1000605242EAC00048607047384A516821F489
:100A2000404101435160704730B5344A5168374BFB
:100A300011F00C0103D0042903D0082903D003606E
:100A400016E0334913E05168536801F470114FF018
:100A5000020413F4803F04EB914104D053689B03DC
:100A600003D52C4B02E02C4B00E0294B594301608D
:100A700051680F2303EA1111284B5C5C0168E140C7
:100A800041605468072505EA14241C5D21FA04F42A
:100A90008460546805EAD4241B5DD940C160526863
:100AA000032303EA92321D4B1B1F9A5CB1FBF2F148
:100AB000016130BD114A0029916901D0014300E074
:100AC0008143916170470D4A0029D16901D00143EA
:100AD00000E08143D1617047084A0029D16801D004
:100AE000014300E08143D1607047044A0029116945
:100AF00001D0014300E081431161704700100240C2
:100B00000000FFF8FFFFF6FE0000424200127A00EC
:100B1000001BB700808D5B0000093D001000002025
:100B20007A4910B5884202D10121C41486E0B0F19F
:100B3000804F09D0764988420DD101210220FFF76C
:100B4000D4FF0021022064E001210846FFF7CDFF19
:100B5000002101205DE06F49884206D10121042077
:100B6000FFF7C3FF0021042053E06B49884206D100
:100B700001210820FFF7B9FF0021082049E067495B
:100B8000884206D101211020FFF7AFFF002110207D
:100B90003FE06349884206D101212020FFF7A5FFED
:100BA0000021202035E05F49884202D10121441410
:100BB00044E05D49884202D10121CC043EE05B491A
:100BC000884202D101210C0538E05949884202D1FE
:100BD00001214C0532E05749884206D101214020CD
:100BE000FFF783FF0021402013E05349884206D1DC
:100BF00001218020FFF779FF0021802009E04F4983
:100C000088420AD1841501212046FFF76EFF00219A
:100C10002046BDE81040FFF768BF4949884202D12D
:100C200001210C040AE04749884202D101214C0409
:100C300004E0454988420AD101218C042046FFF78F
:100C40004BFF2046BDE810400021FFF745BF10BD17
:100C500030B502882D4B334C98420DD0A0420BD0BA
:100C6000B0F1804F08D02A4DA84205D0294DA842A6
:100C700002D0294DA84203D122F070054A882A43A8
:100C8000264DA84206D0264DA84203D022F4407536
:100C9000CA882A4302808A8882850A880285984207
:100CA0000AD0A04208D0264A904205D0254A904258
:100CB00002D0254A904201D1097A01860121818220
:100CC00030BD0029018802D041F0010101E021F08E
:100CD000010101807047002A828901D00A4300E0A7
:100CE0008A4382817047C9430182704702460020CF
:100CF000138A92890B4202EA010202D0002A00D034
:100D000001207047C943018270470000002C014058
:100D10000004004000080040000C004000100040AB
:100D20000014004000340140004C014000500140DC
:100D30000054014000180040001C0040002000400A
:100D400000400140004401400048014030B50446E5
:100D5000008A85B00D464CF6FF710840E9880143D2
:100D60002182A1894EF6F3100140A8882A891043F8
:100D70006A890A431043A081A08A4FF6FF410840C8
:100D8000A9890143A1826846FFF74EFE3E4884428E
:100D900001D1039800E00298A1890904002900EB21
:100DA000C00101EB0010296802DA4FEA410101E0BD
:100DB0004FEA8101B0FBF1F06422B0FBF2F14FEA9F
:100DC00001114FEA11136FF018056B4300EB83001C
:100DD000A3891D044FF0320306D503EBC000B0FB1E
:100DE000F2F000F0070005E003EB0010B0FBF2F0BA
:100DF00000F00F000843208105B030BD4FF41651BC
:100E0000016000218180C18001810C2242818181A9
:100E100070470029818902D041F4005101E021F49A
:100E2000005181817047C1F308018180704780883B
:100E3000C0F3080070470246002012880A4200D022
:100E400001207047C9430180704730B501F01F028F
:100E500001240025C1F3421304FA02F2012B0FD042
:100E6000022B0FD0838A4FEA11210088134204FA23
:100E700001F400EA040001D000B10125284630BD8C
:100E80008389F0E7038AEEE7003801400FB4044994
:100E900010B503AA029800F005F910BC5DF814FB28
:100EA000080000202DE9F0410E4604460020206293
:100EB0002046E168884730B3252805D0D4E90121D0
:100EC0009047206A401CF2E7E168204600278847E7
:100ED000050018D0A5F14100192802D820354FF49B
:100EE00000673246294620462760FFF739F940B1AE
:100EF000012804D0F61D26F007060836D8E7361D6F
:100F0000D6E72846DAE7206ABDE8F0812DE9F0410E
:100F10000646002410687529314616A511D0AFF396
:100F20000080002803DAC0F1000013A507E0316853
:100F30008A0701D511A502E0490704D510A50124AF
:100F400001E0AFF3008000210A2306F1240707E047
:100F5000B0FBF3F203FB1200303078541046491C0A
:100F60000028F5D123462A463046BDE8F04100F07E
:100F70003CB80000000000002D0000002B00000025
:100F80002000000070B504460D4621461068AFF3FE
:100F900000802188090502D5104A7A4402E00F4AF0
:100FA0007A440E32002104F1240307E000F00F061A
:100FB0004FEA1010965D5E5401F101010028F5D151
:100FC00003462078000704D5702D02D009B11132F4
:100FD00002232046BDE8704000F007B8D0010000B1
:100FE000FFF744BB7047704770472DE9F0470D4647
:100FF00099469246044600F124080168880604D503
:10100000E06921F01001216000E00120A84202DD2A
:10101000A0EB050700E00027A16907EB050202EB42
:101020000900A1EB0000A0612078C00602D4204690
:10103000AFF30080002608E0D4E901211AF8060089
:101040009047206A401C761C20624E45F4DB2078D5
:10105000C0060AD52046AFF3008006E0D4E901219E
:1010600030209047206A401C2062381EA7F10107FB
:10107000F4DC07E0D4E9012118F805009047206A64
:10108000401C2062281EA5F10105F3DC2046AFF3C9
:1010900000802078000602D50220BDE8F0870120FC
:1010A000FBE70000074B70B50D467B4400F011F8DC
:1010B0000446284600F020F810B14FF0FF3070BD14
:1010C000204670BD95F5FFFF01694A1C0261087852
:1010D000704700B58FB0CDE9013100210591054978
:1010E0007944CDE9031011466846FFF7DBFE0FB0E7
:1010F00000BD0000E5FFFFFF007B00F080007047AF
:10110000754600F029F8AE4605006946534620F0C2
:101110000700854618B020B5FFF74CF8BDE8204021
:101120004FF000064FF000074FF000084FF0000BA3
:1011300021F00701AC46ACE8C009ACE8C009ACE856
:10114000C009ACE8C0098D4670470446AFF3008083
:101150002046FFF71AF800000048704720000020E2
:1011600001491820ABBEFEE726000200704730316F
:1011700032333435363738394142434445464030BE
:101180005800303132333435363738396162636470
:101190006566403078000000B811000800000020AB
:1011A0002000000028010008D811000820000020BD
:1011B000600600004401000800000000000000007C
:1011C0000000000002040608000000000102030401
:0811D0000102030406070809EF
:04000005080000ED02
:00000001FF
